S024000041546D6567615F536F6674776172655F4172636869746563747572652E73726563E5
S11300000C942A000C94B5090C94DE090C94070A8C
S11300100C9447000C9447000C9447000C94470040
S11300200C9447000C9447000C94E60A0C94290B9A
S11300300C9447000C9447000C9447000C94470020
S11300400C94F3070C9447000C9447000C9447005D
S11300500C94470011241FBECFE5D8E0DEBFCDBF0E
S113006011E0A0E6B0E0ECE9FCE102C005900D92DD
S1130070A836B107D9F721E0A8E6B1E001C01D9286
S1130080A438B207E1F70E9449000C944C0E0C947A
S1130090000041E065E083E00E94200841E064E064
S11300A083E00E94200841E066E081E00E9420088D
S11300B00E947C000E948703FDCF853B08F084EBFF
S11300C0682F70E080E090E00E94200D20E030E096
S11300D044E353E40E947F0C20E030E04CE552E41A
S11300E00E94AE0D20E030E040E151E40E94130C88
S11300F00E94F10C862F08950E94CA070E941D06D3
S11301000E949D0A0E94940B0E94ED0B0E94B90369
S113011080E008950E94E20780E00895CF93C82FFD
S1130120862F0E945D00C13029F460E00E94C30B59
S113013080E00FC0C23031F4682F80E00E94C30B0E
S113014080E007C0C33021F40E94010C80E001C0AC
S113015081E0CF910895CF9381E00E94BE068CE0A8
S11301600E94BE0666E081E00E94240760E070E021
S113017088EC92E40E94B10A83E890E00E940A07A6
S113018060E070E086E993E40E94B10A61E082E0F5
S11301900E9424078BE890E00E940A0760E070E068
S11301A08AEF93E40E94B10A68E082E00E94240787
S11301B0C0E00AC08DE20E94E40660E070E086E1DF
S11301C093E40E94B10ACF5FC930A0F380E0CF91DD
S11301D00895CF93DF931F92CDB7DEB7182F7B011D
S11301E081E00E94BE0661E081E00E94240783E969
S11301F090E00E940A0769E081E00E9424078AE9EE
S113020090E00E940A0761E082E00E94240782EAEB
S113021090E00E940A0729C09FEC980F933028F5BC
S1130220123091F01330C9F01130F9F4813329F40C
S11302306AE581E00E948E0018C08233B1F08333F6
S1130240A1F4F701099511C0813379F0823369F083
S1130250833359F4F701099508C0813331F08233AF
S113026021F0833311F4F7010995CE0101960E9420
S11302703B0489818F3F81F6F8CFAF92BF92CF9232
S1130280EF920F931F93CF93DF93CDB7DEB76197B0
S11302900FB6F894DEBF0FBECDBF5C0188E0EBE67D
S11302A0F0E0DE011A9601900D928A95E1F781E063
S11302B00E94BE068CE00E94BE0660E182E00E94BD
S11302C024076091680170E080E090E00E94A90733
S11302D061E081E00E94240789EA90E00E940A0715
S11302E061E082E00E942407EE24E39401E010E040
S11302F052C0CE0109960E943B0489858F3F09F4C0
S11303004AC0183080F4813471F0843461F0E1E043
S1130310F0E0EC0FFD1FE10FF11D80838AE20E94E3
S1130320E4061F5F38C0843491F41123A1F1612FD6
S113033082E00E94240780E20E94E406CC24CA944E
S1130340C10E612F82E00E9424071C2D24C0813439
S113035011F51BC0822F90E0E1E0F0E0EC0FFD1FEF
S1130360E80FF91F3081EAE0F0E0EC0FFD1FE80F21
S1130370F91F8081381739F0809168018F5F80936D
S11303806801E12C05C02F5F01C020E0283010F384
S1130390F501E08200E00111ACCF80E061960FB678
S11303A0F894DEBF0FBECDBFDF91CF911F910F91A7
S11303B0EF90CF90BF90AF90089581E00E94BE0669
S11303C06894EE24E2F80AE021E045E060E088E386
S11303D091E00E94490786E00E94BE0665E082E043
S11303E00E942407C0E004C08CE70E94E406CF5FAB
S11303F0C830D0F341E066E081E00E94A60860E0E6
S113040070E086E993E40E94B10AC0E009C065E0A7
S11304106C0F82E00E94240780E20E94E406CF5F12
S1130420C830A8F360E070E086E993E40E94B10A62
S113043040E066E081E00E94A608CDCFCF93DF9331
S11304401F92CDB7DEB781E00E94BE0661E081E075
S11304500E94240788EB90E00E940A0761E082E092
S11304600E94240786EC90E00E940A076BE082E079
S11304700E94240780ED90E00E940A070EC0813399
S113048019F40E94550209C0823319F40E9499029A
S113049004C0833311F40E94D202CE0101960E945B
S11304A03B0489818F3F59F7F8CFCF93DF931F9295
S11304B0CDB7DEB781E00E94BE0661E081E00E9414
S11304C0240787ED90E00E940A0769E081E00E941A
S11304D024078FED90E00E940A0761E082E00E9409
S11304E0240786EE90E00E940A0769E082E00E94F9
S11304F024078EEE90E00E940A0713C0813321F492
S113050080E00E948A000DC0823329F465E572E020
S113051081E00E94E900833321F0843311F40E94C6
S11305201E02CE0101960E943B0489818F3F31F760
S1130530F8CFCF93DF931F92CDB7DEB781E00E944F
S1130540BE0661E081E00E94240785EF90E00E94EE
S11305500A0761E082E00E9424078EEF90E00E9487
S11305600A076BE082E00E94240782EA90E00E947E
S11305700A0710C0813321F481E00E948A000AC076
S1130580823321F482E00E948A0004C0833311F490
S11305900E941E02CE0101960E943B0489818F3F76
S11305A049F7F8CFCF93DF931F92CDB7DEB781E041
S11305B00E94BE0661E081E00E94240787E091E08A
S11305C00E940A0761E082E00E94240781E191E031
S11305D00E940A076BE082E00E9424078AE191E00E
S11305E00E940A070EC0843319F40E94090309C04B
S11305F0853319F40E944D0304C0863311F40E941C
S11306001E02CE0101960E943B0489818F3F59F757
S1130610F8CFCF93DF931F92CDB7DEB781E00E946E
S1130620BE0661E081E00E94240787ED90E00E940D
S11306300A0769E081E00E94240781E291E00E94B8
S11306400A0761E082E00E9424078AE291E00E94A6
S11306500A0769E082E00E9424078EEE90E00E947F
S11306600A0713C0813321F483E00E948A000DC07D
S1130670823329F469E073E082E00E94E900833365
S113068021F0843311F40E94D202CE0101960E941B
S11306903B0489818F3F31F7F8CFCF93DF931F92CB
S11306A0CDB7DEB781E00E94BE0661E081E00E9422
S11306B0240787ED90E00E940A0769E081E00E9428
S11306C0240781E391E00E940A0761E082E00E942E
S11306D0240782EA90E00E940A0711C0813321F4C2
S11306E084E00E948A000BC0823329F46DE473E035
S11306F082E00E94E900833311F40E94D202CE0109
S113070001960E943B0489818F3F41F7F8CFCF9334
S1130710DF931F92CDB7DEB780916901813061F01C
S113072018F08230F9F020C00E94AB00809169017A
S11307308F5F8093690118C0CE0101960E943D012C
S11307408981813031F4809169018F5F80936901DF
S11307500BC080916801833039F485E4809369018A
S11307600E94DD010E941E0280E00F90DF91CF9174
S11307700895CF93DF93CDB7DEB760970FB6F894A3
S1130780DEBF0FBECDBF41E063E082E00E942008DF
S1130790898341E064E082E00E9420088A8341E08A
S11307A065E082E00E9420088B8341E066E082E0FD
S11307B00E9420088C8340E064E081E00E942008CD
S11307C08D8340E065E081E00E9420088E8340E054
S11307D066E081E00E9420088F8340E067E081E0CA
S11307E00E942008888741E064E081E00E94A60816
S11307F0898741E065E081E00E94A6088A8741E09C
S113080066E081E00E94A6088B8741E067E081E012
S11308100E94A6088C8741E063E082E00E94A6085B
S11308208D8741E064E082E00E94A6088E8741E063
S113083065E082E00E94A6088F8741E066E082E0DE
S11308400E94A608888B90E081E00AC0E1E0F0E015
S1130850EC0FFD1FE90FF11D8081811103C09F5F23
S11308609031A0F360960FB6F894DEBF0FBECDBFF3
S1130870DF91CF9108955F926F927F928F929F92B2
S1130880AF92BF92CF92DF92EF92FF920F931F939A
S1130890CF93DF93CDB7DEB7E5970FB6F894DEBFFD
S11308A00FBECDBF6C018FEFD6018C9340E1FE01EA
S11308B03696DF01842F1D928A95E9F791E09E8395
S11308C034E03F839A8725E02B879E8786E08F87D5
S11308D09A8B97E09B8B7096DF011D924A95E9F7FE
S11308E092E09E8B43E04F8B9A8F3B8F9E8F2F8F8E
S11308F09AA38BA380E1E3E7F0E0DE0196960190F2
S11309000D928A95E1F7C114D10409F478C0912CB1
S1130910612C6FC0E92CF12CF701EE0FFF1FEE0FD5
S1130920FF1F81E090E08C0F9D1FE80FF91F768870
S1130930858840E0672D882D0E94A6088983B12C04
S11309404BC00B2D10E0F801EE0FFF1FEE0FFF1F41
S1130950A1E0B0E0AC0FBD1FEA0FFB1FA6805580DD
S1130960AE014B5F5F4F6A2D852D0E946E098A830D
S11309708D81811130C0EFEDFEE23197F1F700C0B7
S11309800000AE014B5F5F4F6A2D852D0E946E09FA
S11309908B838D8181111FC0000F111F000F111F48
S11309A081E090E08C0F9D1F080F191FF801EE0DD8
S11309B0FF1D85A1D6018C9308C0AE014B5F5F4F2C
S11309C06A2D852D0E946E098B838D818823A9F35E
S11309D06624639405C0B394B3E0BB1508F0B1CFAB
S11309E041E0672D882D0E94A608E1E06E1649F0CB
S11309F09394F3E0F91508F08DCF81E003C083E010
S1130A0001C081E090E00AC0E1E0F0E0EC0FFD1FDE
S1130A10E90FF11D8081811103C09F5F9430A0F321
S1130A20E5960FB6F894DEBF0FBECDBFDF91CF9130
S1130A301F910F91FF90EF90DF90CF90BF90AF90F8
S1130A409F908F907F906F905F9008951F93CF93A6
S1130A50DF93CDB7DEB72C970FB6F894DEBF0FBE89
S1130A60CDBF182FFE0131968CE0DF011D928A95CF
S1130A70E9F740E062E081E00E94A6088A8340E052
S1130A8063E081E00E94A608898314FB442740F9AF
S1130A9064E080E00E94A6088B8315FB442740F99C
S1130AA065E080E00E94A6088C8316FB442740F989
S1130AB066E080E00E94A6088D83412F441F4427EE
S1130AC0441F67E080E00E94A6088E8341E063E053
S1130AD081E00E94A6088FE99FE00197F1F700C02A
S1130AE0000040E063E081E00E94A608412F4170CD
S1130AF064E080E00E94A6088B8311FB442740F940
S1130B0065E080E00E94A6088C8312FB442740F92C
S1130B1066E080E00E94A6088D8313FB442740F919
S1130B2067E080E00E94A6088E8341E063E081E0F4
S1130B300E94A6088B87AFE9BFE01197F1F700C0C8
S1130B40000040E063E081E00E94A6088C878FE308
S1130B509FE10197F1F700C0000090E081E00AC036
S1130B60E1E0F0E0EC0FFD1FE90FF11D8081811140
S1130B7003C09F5F9C30A0F32C960FB6F894DEBFA1
S1130B800FBECDBFDF91CF911F9108950F931F9397
S1130B90CF93DF93CDB7DEB72C970FB6F894DEBFB3
S1130BA00FBECDBF10E000E014C02AE030E040E00A
S1130BB050E00E941B0EE1E0F0E0EC0FFD1FE00F9F
S1130BC0F11D605D6083622F732F842F952F0F5F5B
S1130BD01F5F611571058105910539F720C0E12F6B
S1130BE0012E000CFF0B319781E090E08C0F9D1FCC
S1130BF0E80FF91F0081003349F441E061E081E02E
S1130C000E94A60880E30E94260508C041E061E036
S1130C1081E00E94A608802F0E942605115011161B
S1130C20F4F280E02C960FB6F894DEBF0FBECDBF71
S1130C30DF91CF911F910F910895CF93DF93CDB79B
S1130C40DEB72C970FB6F894DEBF0FBECDBFFE0102
S1130C5031968CE0DF011D928A95E9F7BFE725EB19
S1130C6081E0B15020408040E1F700C0000041E045
S1130C7063E081E00E942008898341E062E081E032
S1130C800E9420088A8341E061E081E00E942008FC
S1130C908B8341E064E080E00E9420088C8341E083
S1130CA065E080E00E9420088D8341E066E080E0FA
S1130CB00E9420088E8341E067E080E00E942008C3
S1130CC08F8340E067E080E00E94A60840E066E091
S1130CD080E00E94A60841E065E080E00E94A6084A
S1130CE040E064E080E00E94A60841E063E081E027
S1130CF00E94A608AFE9BFE01197F1F700C0000019
S1130D0040E063E081E00E94A60840E061E081E009
S1130D100E94A60888E20E94260540E061E081E086
S1130D200E94A6088FE00E94260540E061E081E071
S1130D300E94A60881E00E94260540E061E081E06F
S1130D400E94A6088C8786E00E94260590E00AC0CF
S1130D50E1E0F0E0EC0FFD1FE90FF11D808181114E
S1130D6004C09F5F9C30A0F381E02C960FB6F894EA
S1130D70DEBF0FBECDBFDF91CF9108951F93CF93F8
S1130D80DF9300D0CDB7DEB7182F40E061E081E0FB
S1130D900E94A6088983812F0E9426058A8390E0F9
S1130DA00AC0E1E0F0E0EC0FFD1FE90FF11D8081C6
S1130DB0811104C09F5F9230A0F381E00F900F90E7
S1130DC0DF91CF911F9108951F93CF93DF9300D0AC
S1130DD0CDB7DEB7182F41E061E081E00E94A6089C
S1130DE08983812F0E9426058A8390E081E00AC0CE
S1130DF0E1E0F0E0EC0FFD1FE90FF11D80818111AE
S1130E0003C09F5F9230A0F30F900F90DF91CF91BA
S1130E101F910895CF93DF93EC01892B89F081E032
S1130E200BC041E061E081E00E94A60888810E9435
S1130E302605811106C0219698819111F2CF01C037
S1130E4083E0DF91CF910895CF93DF939FEF980FC5
S1130E509230C8F49FEF960F9031B8F4D62FC82F74
S1130E6040E061E081E00E94A6082C2F30E02F5F73
S1130E703F4F8D2F90E4299F800D112481500E94B3
S1130E80260581E003C082E001C082E0DF91CF91BA
S1130E900895BF92CF92DF92EF92FF920F931F9328
S1130EA0CF93DF936C01C62F142FB22EE62FF0E000
S1130EB0E05AFE4FD08140E061E081E00E94A60844
S1130EC08D2F0E942605F12EFF0CFF0CFF0CD0E0A5
S1130ED00CC041E061E081E00E94A608F601ED0F3C
S1130EE0F11D80810E942605DF5FDF1590F340E04D
S1130EF061E081E00E94A6088E2D0E94260540E054
S1130F0061E081E00E94A6082B2D30E02F5F3F4F67
S1130F10802F90E4299F800D112481500E94260582
S1130F20DC2FD10F09C041E061E081E00E94A608F6
S1130F308C2F0E942605CF5FCD17A8F380E0DF91A8
S1130F40CF911F910F91FF90EF90DF90CF90BF90C2
S1130F500895CF92DF92EF92FF926B017C01992367
S1130F6084F4F094E094D094C094C11CD11CE11C8E
S1130F70F11C41E061E081E00E94A6088DE20E943C
S1130F802605C701B6010E94C605FF90EF90DF90C9
S1130F90CF900895CF93C0E081E00EC0EC2FF0E035
S1130FA0EE0FFF1FEF59FF4F618141E080810E94E6
S1130FB02008811105C0CF5F90916000C91770F3BC
S1130FC0CF91089590916000891758F4E82FF0E0CC
S1130FD0EE0FFF1FEF59FF4F618180810E942C09A2
S1130FE0089582E008951F920F920FB60F92112474
S1130FF02F933F934F935F936F937F938F939F931D
S1131000AF93BF93EF93FF93E0916C01F0916D0167
S1131010309729F080916A0190916B010995FF91B5
S1131020EF91BF91AF919F918F917F916F915F915C
S11310304F913F912F910F900FBE0F901F901895D5
S1131040843008F07BC0683008F07AC0423008F081
S113105079C0813011F130F08230D1F1833009F45C
S113106052C072C0442361F02AB381E090E002C010
S1131070880F991F6A95E2F7822B8ABB80E0089556
S11310802AB381E090E002C0880F991F6A95E2F7C5
S1131090809582238ABB80E00895442361F027B3BE
S11310A081E090E002C0880F991F6A95E2F7822BD5
S11310B087BB80E0089527B381E090E002C0880FE9
S11310C0991F6A95E2F78095822387BB80E0089593
S11310D0442361F024B381E090E002C0880F991F9B
S11310E06A95E2F7822B84BB80E0089524B381E003
S11310F090E002C0880F991F6A95E2F780958223D9
S113110084BB80E00895442361F021B381E090E042
S113111002C0880F991F6A95E2F7822B81BB80E099
S1131120089521B381E090E002C0880F991F6A9569
S1131130E2F78095822381BB80E0089582E00895E0
S113114082E0089582E0089580E00895843008F0F4
S11311507BC0683008F07AC0423008F079C0813032
S113116011F130F08230D1F1833009F452C072C0F1
S1131170442361F02BB381E090E002C0880F991FF3
S11311806A95E2F7822B8BBB80E008952BB381E054
S113119090E002C0880F991F6A95E2F78095822338
S11311A08BBB80E00895442361F028B381E090E094
S11311B002C0880F991F6A95E2F7822B88BB80E0F2
S11311C0089528B381E090E002C0880F991F6A95C2
S11311D0E2F78095822388BB80E00895442361F080
S11311E025B381E090E002C0880F991F6A95E2F769
S11311F0822B85BB80E0089525B381E090E002C096
S1131200880F991F6A95E2F78095822385BB80E059
S11312100895442361F022B381E090E002C0880F76
S1131220991F6A95E2F7822B82BB80E0089522B36E
S113123081E090E002C0880F991F6A95E2F78095DB
S1131240822382BB80E0089582E0089582E00895BD
S113125082E0089580E008958430D0F56830D0F5B8
S1131260813091F028F08230D9F0833029F134C0F4
S11312702BB381E090E002C0880F991F6A95E2F7D2
S113128082278BBB80E0089528B381E090E002C000
S1131290880F991F6A95E2F7822788BB80E008953A
S11312A025B381E090E002C0880F991F6A95E2F7A8
S11312B0822785BB80E0089522B381E090E002C0DC
S11312C0880F991F6A95E2F7822782BB80E0089510
S11312D082E0089582E0089580E008954115510563
S11312E0E1F18430E0F56830E0F5813091F028F0E8
S11312F08230D9F0833029F136C089B390E002C03E
S1131300959587956A95E2F78170FA01808380E06C
S1131310089586B390E002C0959587956A95E2F7A3
S11313208170FA01808380E0089583B390E002C065
S1131330959587956A95E2F78170FA01808380E03C
S1131340089580B390E002C0959587956A95E2F779
S11313508170FA01808380E0089583E0089582E03B
S1131360089582E0089580E008951F920F920FB6C9
S11313700F9211242F933F934F935F936F937F9317
S11313808F939F93AF93BF93EF93FF93E0916E017D
S1131390F0916F01309709F00995FF91EF91BF919A
S11313A0AF919F918F917F916F915F914F913F91F9
S11313B02F910F900FBE0F901F9018951F920F92B0
S11313C00FB60F9211242F933F934F935F936F9314
S11313D07F938F939F93AF93BF93EF93FF93E0918A
S11313E07001F0917101309709F00995FF91EF9127
S11313F0BF91AF919F918F917F916F915F914F9129
S11314003F912F910F900FBE0F901F9018951F9230
S11314100F920FB60F9211242F933F934F935F9324
S11314206F937F938F939F93AF93BF93EF93FF93A8
S1131430E0917201F0917301309709F00995FF91E1
S1131440EF91BF91AF919F918F917F916F915F9138
S11314504F913F912F910F900FBE0F901F901895B1
S11314603F924F925F926F927F928F929F92AF9230
S1131470BF92CF92DF92EF92FF920F931F93CF937D
S1131480DF934B015C0129013A01E70120E034E2DA
S113149044E75BE40E947F0C20E030E040E853E442
S11314A00E94AE0D20E030E04AE754E40E94AE0D05
S11314B00E94F10C362E70E080E090E00E94200D36
S11314C020E030E04AE754E40E947F0C6B017C0189
S11314D0A501940160E074E284E79BE40E947F0C20
S11314E09B01AC01C701B6010E94AE0D0E94F10C34
S11314F0F8016083632D70E080E090E00E94220D8B
S11315009B01AC01C301B2010E947F0C0E94F10C4B
S11315107983688380E0DF91CF911F910F91FF90D1
S1131520EF90DF90CF90BF90AF909F908F907F907F
S11315306F905F904F903F90089583B78F7B83BFE8
S113154083B7886083BF83B7846083BF83B78F7D8D
S113155083BF83B78F7E83BF89B7836089BF80E0F1
S11315600895EF92FF920F931F93CF93DF9300D0D0
S11315701F92CDB7DEB79B01AC01CE0102967C0170
S11315808E010F5F1F4F60E070E080E893E40E94DB
S1131590300A89818CBF20E030E008C02F5F3F4FC4
S11315A008B601FEFDCF88B7826088BF8A819B811F
S11315B02817390799F780E00F900F900F90DF916B
S11315C0CF911F910F91FF90EF9008951F920F926A
S11315D00FB60F9211242F933F934F935F936F9302
S11315E07F938F939F93AF93BF93EF93FF938091D8
S11315F0760190917701019690937701809376011B
S113160020918201309183018217930789F410920B
S1131610770110927601E0917C01F0917D01309781
S113162039F08091780190917901892B09F4099519
S1131630FF91EF91BF91AF919F918F917F916F91A6
S11316405F914F913F912F910F900FBE0F901F907C
S113165018951F920F920FB60F9211242F933F9358
S11316604F935F936F937F938F939F93AF93BF93A6
S1131670EF93FF938091740190917501019690937B
S1131680750180937401019609F412BE809174016E
S113169090917501892B89F410927501109274014F
S11316A0E0917A01F0917B01309739F080917801D3
S11316B090917901892B09F40995FF91EF91BF91DC
S11316C0AF919F918F917F916F915F914F913F91D6
S11316D02F910F900FBE0F901F901895813419F021
S11316E0823489F01FC09A01A62FB0E00E943D0EFB
S11316F024E630E040E050E00E941B0E2150310906
S11317003BBD2ABD0FC09A01A62FB0E00E943D0E3A
S113171024E630E040E050E00E941B0E21503109E5
S113172039BD28BD80E00895CF93DF9300D000D069
S1131730CDB7DEB719828FB583608FBD8EB5886053
S11317408EBD1A828EB583608EBD1B828FB5806874
S11317508FBD1C828FB5806A8FBD90E081E00AC086
S1131760E1E0F0E0EC0FFD1FE90FF11D8081811134
S113177003C09F5F9430A0F30F900F900F900F90D1
S1131780DF91CF9108951F93CF93DF9300D0CDB70E
S1131790DEB7162F40E054E0682F81E40E946E0B00
S11317A0898340E054E0612F82E40E946E0B8A83B7
S11317B080E00AC0E1E0F0E0EC0FFD1FE80FF11D4E
S11317C09081913019F08F5F8230A0F381E00F9007
S11317D00F90DF91CF911F91089585B5806485BDE9
S11317E085B5886085BD85B5846085BD85B5806215
S11317F085BD85B58F7E85BD89B7806689BF80E04C
S1131800089590E0A0E0B0E06627782F892F9A2F02
S113181024E630E040E050E00E941B0E215023BD3E
S113182080E008955058BB27AA270E942A0C0C94E4
S1131830740D0E94660D38F00E946D0D20F039F48D
S11318409F3F19F426F40C94630D0EF4E095E7FB26
S11318500C945D0DE92F0E94850D58F3BA176207A9
S113186073078407950720F079F4A6F50C94A70D67
S11318700EF4E0950B2EBA2FA02D0B01B9019001A7
S11318800C01CA01A0011124FF27591B99F0593FEB
S113189050F4503E68F11A16F040A22F232F342F33
S11318A04427585FF3CF469537952795A795F04081
S11318B05395C9F77EF41F16BA0B620B730B840B96
S11318C0BAF09150A1F0FF0FBB1F661F771F881F4E
S11318D0C2F70EC0BA0F621F731F841F48F48795A6
S11318E077956795B795F7959E3F08F0B0CF939598
S11318F0880F08F09927EE0F9795879508950E9411
S1131900930C0C94740D0E946D0D58F00E94660D9A
S113191040F029F45F3F29F00C945D0D51110C94B3
S1131920A80D0C94630D0E94850D68F39923B1F3FF
S1131930552391F3951B550BBB27AA2762177307F1
S1131940840738F09F5F5F4F220F331F441FAA1F85
S1131950A9F335D00E2E3AF0E0E832D09150504041
S1131960E695001CCAF72BD0FE2F29D0660F771FEF
S1131970881FBB1F261737074807AB07B0E809F0D5
S1131980BB0B802DBF01FF2793585F4F3AF09E3F5A
S1131990510578F00C945D0D0C94A80D5F3FE4F3B1
S11319A0983ED4F3869577956795B795F7959F5F9D
S11319B0C9F7880F911D9695879597F90895E1E0E9
S11319C0660F771F881FBB1F621773078407BA0748
S11319D020F0621B730B840BBA0BEE1F88F7E095A3
S11319E008950E948D0D88F09F5798F0B92F99277C
S11319F0B751B0F0E1F0660F771F881F991F1AF0F6
S1131A00BA95C9F714C0B13091F00E94A70DB1E0A6
S1131A1008950C94A70D672F782F8827B85F39F0A5
S1131A20B93FCCF3869577956795B395D9F73EF48E
S1131A3090958095709561957F4F8F4F9F4F089536
S1131A40E89409C097FB3EF4909580957095619554
S1131A507F4F8F4F9F4F9923A9F0F92F96E9BB270A
S1131A609395F695879577956795B795F111F8CF86
S1131A70FAF4BB0F11F460FF1BC06F5F7F4F8F4FF1
S1131A809F4F16C0882311F096E911C0772321F0E7
S1131A909EE8872F762F05C0662371F096E8862F7F
S1131AA070E060E02AF09A95660F771F881FDAF7D6
S1131AB0880F9695879597F9089597F99F6780E819
S1131AC070E060E008959FEF80EC089500240A948C
S1131AD01616170618060906089500240A94121605
S1131AE01306140605060895092E0394000C11F438
S1131AF0882352F0BB0F40F4BF2B11F460FF04C0E5
S1131B006F5F7F4F8F4F9F4F089557FD9058440F3D
S1131B10551F59F05F3F71F04795880F97FB991F48
S1131B2061F09F3F79F08795089512161306140605
S1131B30551FF2CF4695F1DF08C016161706180692
S1131B40991FF1CF86957105610508940895E8946D
S1131B50BB2766277727CB0197F908950E94C10D0B
S1131B600C94740D0E94660D38F00E946D0D20F0E7
S1131B70952311F00C945D0D0C94630D11240C94B9
S1131B80A80D0E94850D70F3959FC1F3950F50E049
S1131B90551F629FF001729FBB27F00DB11D639F1B
S1131BA0AA27F00DB11DAA1F649F6627B00DA11DC1
S1131BB0661F829F2227B00DA11D621F739FB00D67
S1131BC0A11D621F839FA00D611D221F749F3327D7
S1131BD0A00D611D231F849F600D211D822F762F70
S1131BE06A2F11249F5750409AF0F1F088234AF04D
S1131BF0EE0FFF1FBB1F661F771F881F91505040B9
S1131C00A9F79E3F510580F00C945D0D0C94A80D2E
S1131C105F3FE4F3983ED4F3869577956795B7953F
S1131C20F795E7959F5FC1F7FE2B880F911D969559
S1131C30879597F90895A1E21A2EAA1BBB1BFD01F3
S1131C400DC0AA1FBB1FEE1FFF1FA217B307E40797
S1131C50F50720F0A21BB30BE40BF50B661F771FEF
S1131C60881F991F1A9469F76095709580959095CF
S1131C709B01AC01BD01CF010895A29FB001B39FA8
S1131C80C001A39F700D811D1124911DB29F700D81
S10F1C90811D1124911D0895F894FFCFCC
S1131C9C0502020207030302010200313233343518
S1131CAC3637383132334134353642373839432AB2
S1131CBC30234457656C636F6D65004C6F616469C8
S1131CCC6E6700312D4F70656E00322D436C6F734F
S1131CDC6500332D4261636B00456E746572205050
S1131CEC617373776F726400312D4C6976696E671A
S1131CFC20526F6F6D00322D426564526F6F6D0010
S1131D0C332D4E65787400312D4C6967687400323C
S1131D1C2D446F6F7200332D4F7468657200342D2F
S1131D2C4261636B00312D4C696768744100322D3C
S1131D3C4C696768744200342D4B69746368656E32
S1131D4C00352D47617264656E00362D4261636BFC
S1131D5C00322D57696E646F7700332D54656D70A6
S1131D6C00322D476174650000001C021F00000046
S1131D7C000000000304081000000404040404041C
S1131D8C0000001F0A0E000000000704121E0000D1
S10B1D9C40485058606870785B
S9030000FC
